:060000000C947D000C943D
:1000060000000C9400000C9400000C9400000C946A
:1000160000000C9400000C9400000C9400000C945A
:1000260000000C9400000C9400000C9400000C944A
:100036002F010C9400000C9400000C9400000C940A
:1000460000000C9400000C9400000C9400000C942A
:1000560000000C9400000C9400000C9400000C941A
:1000660000000C9400000C9400000C9400000C940A
:1000760000000C9400000000C8410000803F000012
:10008600010054656D703A0043005365743A0045AB
:100096003A00204F4E00204F4646000001002D4EEC
:1000A600414E00494E46000080C004001B027C0001
:1000B60004001F02800006000002880002000602FB
:1000C6008E0005000802900002000D028E0003005B
:1000D6000F029500040012029800050016029C000B
:1000E60004000200840001003902A20002003D0261
:1000F600AE000000F894EE27EFBBF1E0F5BFE5BFD8
:10010600F8E1A895A4B7A77FA4BFF0936000E09399
:1001160060008DE0A2E0BB27ED938A95E9F780E0C9
:1001260094E0A0E0B1E0ED930197E9F7E0EBF0E0B1
:1001360085919591009761F0A591B59105901590DF
:10014600BF01F00105900D920197E1F7FB01F0CF99
:10015600E0E0EEBBEABDEBBDEFEFEDBFE4E0EEBFE6
:10016600C0E0D2E00C94C001AA93E881E06CE09371
:100176007C0083E48A95F1F7E0917A00E064E093ED
:100186007A00E0917A00E071E1F3E0917A00E061B3
:10019600E0937A00E0917800F09179000C940C04D9
:1001A6000E9456040E945F04A7E2B2E00E94B002D9
:1001B6000E9464040E945F04ADE2B2E00E94B002B5
:1001C6000E946D040E945F04A3E3B2E00E94B002A5
:1001D6000E94AB03E0E00E947604A0E0B2E00E9439
:1001E600D003E6E00E947604A7E2B2E00E94D003C4
:1001F600A6E0B2E00E94D003E0E00E947A04A8E004
:10020600B2E00E94D003E4E00E947A04ADE2B2E0DC
:100216000E94D003ADE0B2E00E94D003EBE00E9462
:100226007A04AFE0B2E00E94D003EDE00E947A04C7
:10023600A3E3B2E00E94D0035F9B06C0ECE00E94FD
:100246007604A2E1B2E005C0ECE00E947604A6E1E5
:10025600B2E00E94D00308950A921A92FA926A9323
:100266007A938A939A93AA93BA93EA93FA93EFB7F7
:10027600EA935E9B02C05E9801C05E9A22243324F4
:10028600E4E1F0E02E163F069CF4A0E06DDF0E944C
:100296007E04662777270E947D050E94B7050E9487
:1002A6008704A2E00E949004F10131961F01E8CF75
:1002B6000E947E04E0E0F0E060EA71E40E945506E8
:1002C6000E9487040E947E04E0E0F0E060E070E4B3
:1002D6000E9407060E9487040E945604AAE0B7ED12
:1002E60083E290E40E940706DF01CB01E0E0F0E044
:1002F60060E874E40E9455060E9487040E94560432
:10030600A2E5B8EB8EE290E40E94B0050E94870455
:100316000E947E04E0E0F0E068EC72E40E940706CA
:100326000E9487040E946D040E9493040E94B705F0
:100336000E947E040E949A0609F010F40C94A5010E
:100346005F9A0CC00E949C040E9464040E94B0053F
:100356000E947E040E949A0608F45F9821DFE991C4
:10036600EFBFF991E991B991A99199918991799103
:100376006991F99019900990189577D078945E9ABA
:10038600A0E10E94E103A8954B9928C0AEE10E9426
:1003960090044B9923C04B9902C0A895FCCF042C1E
:1003A6000528A9F00E94A5040E94B7050E94AB0487
:1003B6000E949304E0E0F0E060E272E40E949A0694
:1003C60009F010F40C94E9010E94AB0406C00E94E7
:1003D600B4040E94B7050E94BA04E2DE4C992EC00E
:1003E600AEE10E9490044C9929C04C9902C0A89590
:1003F600FCCF042C052891F00E94A5040E94B005AC
:100406000E94AB040E949304E0E0F0E060E971E42E
:100416000E949A0610F40E94AB040FC00E949C042E
:10042600E0E0F0E060E87FE30E949A0630F00E9488
:10043600B4040E94B0050E94BA04B2DE4D9913C0FE
:10044600AEE10E9490044D990EC04D9902C0A89548
:10045600FCCF042C052819F04424552403C0E1E000
:10046600F0E02F019DDE8FCFFFCFE0E8E093610043
:10047600E0E0E0936100E2B9E1B9E5B9E4B9E8B9D1
:10048600E7B9E8E3EBB9E0ECEAB9E0E0E4BDE5BDE5
:10049600E6BDE7BDE8BDE0938000EDE0E0938100B6
:1004A600E0E0E0938500E0938400E0938700E0932A
:1004B6008600E6E2E0938900E0E2E0938800E0E06F
:1004C600E0938B00E0938A00E093B600E093B000DF
:1004D600E093B100E093B200E093B300E093B40080
:1004E600E0936900EDBBE0936800E0936E00E2E004
:1004F600E0936F00E0E0E0937000E093C000E093CB
:10050600C100E093C200E093C500E093C400E0930D
:10051600C900E0E8E0BFE0E0E0937B00E0937F0005
:10052600E0937E00E0ECE0937C00E5E8E0937A005F
:10053600A895E8E1E0936000E8E0E09360000895A4
:10054600BA93AA93E991F991A991B991CD01059030
:100556000D920020E1F7FC010895BA93AA9324971F
:10056600E0E0E883E983EA83EFE3EB831A930A93F7
:10057600EB85FC85EF3FAFEFFA0739F40E94C30421
:10058600A4EAB0E00E94A302B1C0EF3FAFE7FA07CA
:1005960039F40E94C304A5EAB0E00E94A302A6C0F3
:1005A600AC85AA2362F4E985FA856B857C850E9471
:1005B60011050E94C8040E94CD04EDE2EC93A885C3
:1005C600A73010F0E6E0E8871885E12F1150E030FB
:1005D60039F00E94D4040E94D9040E94E004F5CFA9
:1005E6000E94E5040E94B7050E94C80410E0E0E0FE
:1005F600F0E060E87FE30E94E0040E94E5040E94C8
:100606009A0688F00E94D4040E94EE040E94E00438
:100616001F5F173238F00E94C304A9EAB0E00E94B7
:10062600A30264C0EACF103029F40E94CD04E0E3AF
:10063600EC932FC0E12F1150E03059F10E94D40401
:100646000E94D904A0E0B0E080E09FE30E94B705D5
:10065600DF01CB010E943F040E94E0040E94E504F2
:100666000E9455060E9444050E2F0E94CD04E02FDD
:10067600E05DEC93E02F0E94D404FF2766277727DE
:100686000E947D050E9407060E94F5040E94FA0456
:10069600D1CFE885E03031F10E94CD04EEE2EC9353
:1006A600E885E150E887EF5FE9F00E94F5040E94D3
:1006B600EE040E94C804E985FA856B857C850E9454
:1006C60044050E2F0E94CD04E02FE05DEC93E02F51
:1006D6000E94F504FF27662777270E947D050E9462
:1006E600FA04DECFAE81BF81E0E0EC931981088188
:1006F6002D960895AA93E8B1EF70AE2FE881E07FBA
:10070600EA2BE8B98DE08A95F1F7429A81E28A955B
:10071600F1F7429881E28A95F1F77BC0AA93A88106
:10072600E9DFE881E295E883A881E4DF8AEF90E0DB
:100736000197F1F76EC0AA93E881F0E0E35CFD4F04
:10074600E081A981AE0FEADF79806880229608955C
:10075600A2E0E4DFA3E00E949004ACE0DFDFA1E0CA
:10076600DDDFA3E00E949004E0E06E2E7E2E089569
:10077600AA93A881AA3011F0791448F0E0E0EA9330
:100786006394A62DD8DFA881AA3009F442C07394D9
:10079600409AA881C3DF40983CC0BA93AA931A93A3
:1007A600A981BA81ED91A983BA831E2FE03019F091
:1007B600A12FDEDFF5CF188123960895AA93E7B11E
:1007C600E06FE7B93A9A389A399A42984098419830
:1007D6009880E881E058E0933F02E881E054E09396
:1007E6004002A4E10E9490040E94FF040E94FF04BC
:1007F6000E94FF04A0E27EDF84EF91E00197F1F70B
:10080600A8E28CDFA4E08ADFA5E888DFA6E086DF21
:100816009FDF219608950E94E1067B816A81F98116
:10082600E88177FB770F67FD7160972F9E5781F000
:1008360078F0983190F4AA27BB27882708948795E3
:10084600B795A7959A95D1F7EA23FB23682305C0A8
:10085600E8947727EE27FF2766276F77769508F4C3
:10086600606877F9A991B99189919991EA17FB077F
:100876006807790797FB08950E94E1060E94D20651
:100886000E940E040E94D70619F40E94CD0609C0E4
:10089600E6F70E94CD06A0E0B0E080E89FE30E9464
:1008A600B00524960895E0912302F0912402609108
:1008B60025027091260208950E94DC06E1E0EA9383
:1008C6000895E0911B02F0911C0260911D02709147
:1008D6001E020895E0911F02F0912002609121020C
:1008E600709122020895EA93A0E00C949E03EA9385
:1008F600A1E00C949E03A0912302B0912402809162
:100906002502909126020895E0932302F093240293
:1009160060932502709326020895B0E00C940705B3
:10092600A0911B02B0911C0280911D0290911E02A3
:100936000895A0911F02B09120028091210290910A
:1009460022020895BEDFA0E0B0E080E89FE30895AC
:10095600E0931B02F0931C0260931D0270931E022B
:100966000895B8DFA0E0B0E080E09FE30895E0934B
:100976001F02F093200260932102709322020895D1
:10098600EE81FF81FA93EA930895E987FA876B87E8
:100996007C870895AE81BF811196AE83BF83119780
:1009A6000895AA81BB818C819D810895EDECFCECB4
:1009B6006CEC7DE30E9407060895EA83FB836C8353
:1009C6007D830895EA81FB816C817D81A985BA8545
:1009D6008B859C850895E0E0F0E060E271E40E947A
:1009E60007060895A985BA858B859C8508950E947A
:1009F600E6060E94B005C9CFA0E30E947D0384EFFE
:100A060091E00197F1F70895109639F088E893E19F
:100A16000197F1F7A8951197C9F7089530976040A7
:100A2600704009F070580895552342F4503811F477
:100A3600E0FF04C03196691F791F6BF050E8572715
:100A460011F45F93CFC05F3F31F0660F000C5795EE
:100A56006795752F08955F9300200AF0CFC0C8C030
:100A660050E8192E1522880F991F9527550F87953F
:100A760050E8072E0522660F771F7527550F6795D5
:100A86000895689401C0E8945F93F2DF703818F017
:100A96007F3F08F4A7C056E1571BAAF4519558307A
:100AA6000EF4593030F0EFEFFFEF6FEF7FE777F995
:100AB6001AC077275523B9F0EE0FFF1F661F771F61
:100AC6005A95D1F710C07727583028F0EF2FF62F18
:100AD600672F5850F9CF552331F076956795F795DE
:100AE600E7955A95D1F700200AF441D15F91089510
:100AF600689401C0E894309760407040B1F00024DB
:100B060026F0772312F4009432D1172E7EE11120BD
:100B160032F07A95EE0FFF1F661F111CF9CFEF2FEB
:100B2600F62F612D5F938ADF5F9108954F93AF0192
:100B3600FD01DA01AB01BC01CA01402D012C142EC6
:100B46004F910895EA0FFB1F681F0895E095F095F1
:100B56006095EF5FFF4F6F4F08955F9381DF903889
:100B660071F150E8152604C05F937ADF903839F1A9
:100B7600703821F1572F591B2BF112F4D7DFFACF1A
:100B8600583118F0AA27BB278827583028F0AB2FF2
:100B9600B82F88275850F9CF552329F08695B79551
:100BA600A7955A95D9F7502D512572F0CBDF38F419
:100BB6006795F795E795739513F420C0B7DF3EDF89
:100BC6005F910895D8F7FBCFEA1BFB0B680B51F03A
:100BD60010F40094BBDF662392F3EE0FFF1F661F2F
:100BE6007A95CBF7EE27FF27662777275F9108953B
:100BF600EFEFFFEF6FE77FEF5F910895EFEFFFEF06
:100C06006FE77FE75F9108955F932ADF703851F3AE
:100C1600903841F301240894791F23F41CF3002033
:100C26003AF3ECCF0F921F932F933F934F931127D5
:100C360022279927689FA0018F9F302D410D591FAC
:100C46006B9F300D411D591F8E9F27D0BF9F25D00A
:100C56006A9F23D0BE9F1DD0AF9F1BD0AE9F110DA4
:100C6600291F391F491F591FE32FF42F652F522FB4
:100C76004F913F912F911F910F9066232AF0550FA8
:100C8600EE1FFF1F661F02C073954BF2CDDE5F910C
:100C96000895100D211D391F02C0200D311D491F59
:100CA600591F08955F93DCDE703821F411200AF491
:100CB6009FCFA4CF903809F495CF01240894970BC1
:100CC6001BF4D4F30020F3CF792F1F932F933F9378
:100CD6004F9311241127222733274427552790E2C3
:100CE600AE17BF078607410730F0AE1BBF0B860B5A
:100CF600410B089401C08894551F221F331F111CF5
:100D0600AA1FBB1F881F441F9A9551F7F901612D31
:100D16004F913F912F911F91662332F0550FEE1F91
:100D2600FF1F661F7A9543F27FDE5F910895992330
:100D36009AF0772342F0971748F029F4AE17BF07C9
:100D4600860720F031F09894889408959894089432
:100D560008951894889408957723C2F7971798F3FF
:100D6600A9F7EA17FB07680788F399F3ECCFF09524
:100D760060957095E195FF4F6F4F7F4F0895FE2F59
:100D8600FF0FFF0B6F2F7F2F08956F2F660F660BD8
:100D9600762F0895E881F9816A817B810895A8817B
:100DA600B9818A819B810895E883F9836A837B836D
:100DB60008957A936A93FA93EA9308959A938A9395
:100DC600BA93AA930895182E862F612D192E972F60
:100DD600712D1B2EBF2FF12D1A2EAE2FE12D08954A
:00000001FF
